:020000040800F2
:1000000000000520392A00087D2A00087D2A000802
:100010007D2A00087D2A00087D2A000800000000D3
:100020000000000000000000000000007D2A000821
:100030007D2A0008000000007D2A00087D2A0008B3
:100040007D2A00087D2A00087D2A00087D2A0008F4
:100050007D2A00087D2A00087D2A00087D2A0008E4
:100060007D2A00087D2A00087D2A00087D2A0008D4
:100070007D2A00087D2A00087D2A00087D2A0008C4
:100080007D2A00087D2A00087D2A00087D2A0008B4
:100090007D2A00087D2A00087D2A00087D2A0008A4
:1000A0007D2A00087D2A00087D2A00087D2A000894
:1000B0007D2A00087D2A00087D2A00087D2A000884
:1000C0007D2A00087D2A00087D2A00087D2A000874
:1000D0007D2A00087D2A00087D2A00087D2A000864
:1000E0007D2A00087D2A00087D2A00087D2A000854
:1000F0007D2A00087D2A00087D2A00087D2A000844
:100100007D2A00087D2A00087D2A00087D2A000833
:100110007D2A00087D2A00087D2A00087D2A000823
:100120007D2A00087D2A00087D2A00087D2A000813
:100130007D2A00087D2A00087D2A00087D2A000803
:100140007D2A00087D2A00087D2A00087D2A0008F3
:100150007D2A00087D2A00087D2A00087D2A0008E3
:100160007D2A00087D2A00087D2A00087D2A0008D3
:100170007D2A00087D2A00087D2A00087D2A0008C3
:080180007D2A00087D2A000819
:1001880080B582B000AF78607B683C4A934208D162
:100198000121012001F098FA0021012001F094FAD0
:1001A80068E07B68364A934208D10121022001F0B9
:1001B8008BFA0021022001F087FA5BE07B68314A64
:1001C800934208D10121042001F07EFA0021042085
:1001D80001F07AFA4EE07B682B4A934208D101215C
:1001E800082001F071FA0021082001F06DFA41E0C1
:1001F8007B68264A934208D10121102001F064FA55
:100208000021102001F060FA34E07B68204A934214
:1002180008D10121202001F057FA0021202001F007
:1002280053FA27E07B681B4A934208D101214020FA
:1002380001F04AFA0021402001F046FA1AE07B68F2
:10024800154A934208D10121802001F03DFA00218E
:10025800802001F039FA0DE07B68104A934209D1F9
:1002680001214FF4807001F02FFA00214FF48070C3
:1002780001F02AFA00BF0837BD4680BD00000240E1
:100288000004024000080240000C02400010024036
:100298000014024000180240001C024000200240E6
:1002A80080B487B000AF7860396000237B61002399
:1002B8003B610023FB6000237B6176E001227B69C0
:1002C80002FA03F33B613B681A683B691340FB6021
:1002D800FA683B699A4265D17B681A687B695B005A
:1002E800032101FA03F3DB431A407B681A607B6839
:1002F8001A683B681B7919467B695B0001FA03F3AE
:100308001A437B681A603B681B79012B03D03B6852
:100318001B79022B2ED17B689A687B695B000321CD
:1003280001FA03F3DB431A407B689A607B689A689A
:100338003B685B7919467B695B0001FA03F31A4352
:100348007B689A607B685A687B699BB2194601236F
:100358008B40DB431A407B685A607B685B683A686D
:10036800927911467A6992B201FA02F292B21A436C
:100378007B685A607B68DA687B699BB25B00032103
:1003880001FA03F3DB431A407B68DA607B68DA68BA
:100398003B68DB7919467B695B0001FA03F31A4372
:1003A8007B68DA607B6901337B617B690F2B85D9B8
:1003B80000BF1C37BD465DF8047B704780B483B02E
:1003C80000AF78607B684FF6FF721A607B68002286
:1003D8001A717B6800225A717B6800229A717B68C7
:1003E8000022DA7100BF0C37BD465DF8047B704708
:1003F80080B485B000AF78600B467B804FF48033C3
:10040800FB607A88FB681343FB60FA687B68DA61F3
:100418007A887B68DA61FA687B68DA617B68DB690D
:10042800FB607B68DB69FB6000BF1437BD465DF885
:10043800047B704780B485B000AF78600B467B8042
:100448000023FB737B681A697B881340002B02D05A
:100458000123FB7301E00023FB73FB7B1846143771
:10046800BD465DF8047B704780B483B000AF786008
:100478007B681B699BB218460C37BD465DF8047B48
:10048800704780B485B000AF78600B467B8000234E
:10049800FB737B685A697B881340002B02D00123C9
:1004A800FB7301E00023FB73FB7B18461437BD4642
:1004B8005DF8047B704780B483B000AF78607B68D8
:1004C8005B699BB218460C37BD465DF8047B7047E4
:1004D80080B483B000AF78600B467B807B687A88F5
:1004E8001A8300BF0C37BD465DF8047B704780B4A3
:1004F80083B000AF78600B467B807B687A885A832C
:1005080000BF0C37BD465DF8047B704780B483B0EC
:1005180000AF78600B467B8013467B707B78002B9E
:1005280003D07B687A881A8302E07B687A885A83CA
:1005380000BF0C37BD465DF8047B704780B483B0BC
:1005480000AF78600B467B807A887B685A6100BF71
:100558000C37BD465DF8047B704780B483B000AFAC
:1005680078600B467B807B685A697B885A407B6839
:100578005A6100BF0C37BD465DF8047B704780B4F4
:1005880085B000AF78600B467B8013467B700023F4
:10059800FB600023BB607A787B8803F007039B002D
:1005A80002FA03F3FB607B88DB089BB218467B8862
:1005B800DB089BB21A467B68083253F822207B88F6
:1005C80003F007039B000F2101FA03F3DB4302EA60
:1005D80003017B6800F1080243F822107B88DB08DE
:1005E8009BB21A467B68083253F82220FB681343F3
:1005F800BB607B88DB089BB21A467B680832B96807
:1006080043F8221000BF1437BD465DF8047B7047DD
:1006180080B582B000AF78607B68174A93420AD1F0
:1006280001214FF4001001F0AFF800214FF4001041
:1006380001F0AAF81CE07B68104A93420AD1012114
:100648004FF4800001F0A0F800214FF4800001F081
:100658009BF80DE07B680A4A934209D101214FF4C7
:10066800000001F091F800214FF4000001F08CF82F
:1006780000BF0837BD4680BD005400400058004008
:10068800005C004080B58AB000AF78603960002314
:10069800FB8400237B840423BB84574BFB617B686A
:1006A8009B88FB84FB8C23F03F03FB8407F10C033E
:1006B800184600F063FE7B69FB61FB694F4AA2FBA9
:1006C80003239B0C7B84FA8C7B8C1343FB847B6811
:1006D800FA8C9A807B681B889BB223F001039AB23C
:1006E8007B681A800023FB843B681B68444A93425A
:1006F80015D83B681B685B00FA69B2FBF3F3BB844F
:10070800BB8C032B01D80423BB84FA8CBB8C13430A
:10071800FB847B8C01339AB27B681A8440E03B6887
:10072800DB884BF6FF72934209D13B681A6813467F
:100738005B001344FA69B2FBF3F3BB840EE03B6839
:100748001A6813469B0013449A001344FA69B2FBD3
:10075800F3F3BB84BB8C43F48043BB84BB8CC3F3EF
:100768000B03002B03D1BB8C43F00103BB84BA8C71
:10077800FB8C13439BB26FEA43436FEA5343FB84FA
:100788007B8C4FF4967202FB03F31E4A82FB031222
:100798009211DB17D31A9BB201339AB27B681A8481
:1007A8007B68FA8C9A837B681B889BB243F00103B1
:1007B8009AB27B681A807B681B88FB84FB8C23F4C5
:1007C800816323F00203FB843B689A883B685B895A
:1007D80013439AB2FB8C1343FB847B68FA8C1A8010
:1007E8003B689A893B681B8913439AB27B681A81D4
:1007F80000BF2837BD4680BD00127A0083DE1B4348
:10080800A0860100D34D621080B483B000AF786039
:100818007B6841F288321A607B6800229A807B6884
:100828004BF6FF72DA807B6800221A817B6800220F
:100838005A817B684FF480429A8100BF0C37BD46CD
:100848005DF8047B704780B483B000AF78600B46D6
:10085800FB70FB78002B08D07B681B889BB243F0A9
:1008680001039AB27B681A8007E07B681B889BB2F9
:1008780023F001039AB27B681A8000BF0C37BD468B
:100888005DF8047B704780B483B000AF78600B4696
:10089800FB70FB78002B08D07B681B889BB243F465
:1008A80080739AB27B681A8007E07B681B889BB2CA
:1008B80023F480739AB27B681A8000BF0C37BD4658
:1008C8005DF8047B704780B483B000AF78600B4656
:1008D800FB70FB78002B08D07B681B889BB243F425
:1008E80000739AB27B681A8007E07B681B889BB20A
:1008F80023F400739AB27B681A8000BF0C37BD4698
:100908005DF8047B704780B483B000AF78600B4615
:10091800FB701346BB70BB78002B04D0FB7843F008
:100928000103FB7003E0FB7823F00103FB70FB7805
:100938009AB27B681A8200BF0C37BD465DF8047B0B
:10094800704780B483B000AF78600B46FB70FB78CB
:10095800002B08D07B681B889BB243F480639AB253
:100968007B681A8007E07B681B889BB223F480634E
:100978009AB27B681A8000BF0C37BD465DF8047BCD
:10098800704780B485B000AF78600B46FB700023D9
:10099800FB817B689B89FB81FB8923F0FE03FB813C
:1009A800FB781BB203F0FE031AB2B7F90E301343FB
:1009B8001BB2FB817B68FA899A8100BF1437BD4658
:1009C8005DF8047B704780B483B000AF78600B4655
:1009D800FB70FB78002B08D07B689B899BB243F0A7
:1009E80001039AB27B689A8107E07B689B899BB276
:1009F80023F001039AB27B689A8100BF0C37BD4689
:100A08005DF8047B704780B483B000AF78600B4614
:100A1800FB70FB78002B08D07B681B889BB243F0E7
:100A280040039AB27B681A8007E07B681B889BB2F8
:100A380023F040039AB27B681A8000BF0C37BD468A
:100A48005DF8047B704780B483B000AF78600B46D4
:100A5800FB70FB78002B0AD07B681B889BB26FEA7F
:100A680043436FEA53439AB27B681A8007E07B6876
:100A78001B889BB2C3F30E039AB27B681A8000BF2F
:100A88000C37BD465DF8047B704780B483B000AF77
:100A980078600B46FB70FB78002B08D17B681B88BD
:100AA8009BB243F080039AB27B681A8007E07B68A8
:100AB8001B889BB223F080039AB27B681A8000BF20
:100AC8000C37BD465DF8047B704780B483B000AF37
:100AD80078600B467B807B88B3F5804F08D07B68B5
:100AE8009B8B9BB223F480439AB27B689A8307E07E
:100AF8007B689B8B9BB243F480439AB27B689A8352
:100B080000BF0C37BD465DF8047B704780B483B0E6
:100B180000AF78600B467B807B88B3F5006F08D107
:100B28007B681B889BB243F400639AB27B681A8087
:100B380007E07B681B889BB223F400639AB27B684A
:100B48001A8000BF0C37BD465DF8047B704780B43F
:100B580083B000AF78600B467B807B88B3F5005F7D
:100B680008D17B681B889BB243F400539AB27B6818
:100B78001A8007E07B681B889BB223F400539AB263
:100B88007B681A8000BF0C37BD465DF8047B704750
:100B980080B483B000AF78600B46FB70FB78002B05
:100BA80008D07B681B889BB243F010039AB27B681D
:100BB8001A8007E07B681B889BB223F010039AB267
:100BC8007B681A8000BF0C37BD465DF8047B704710
:100BD80080B483B000AF78600B46FB70FB789AB2A4
:100BE8007B681A8200BF0C37BD465DF8047B7047EE
:100BF80080B483B000AF78607B681B8A9BB2DBB29D
:100C080018460C37BD465DF8047B704780B483B046
:100C180000AF78600B46FB70FB78002B08D07B6830
:100C28001B889BB243F480539AB27B681A8007E012
:100C38007B681B889BB223F480539AB27B681A8026
:100C480000BF0C37BD465DF8047B704780B483B0A5
:100C580000AF78600B467B807B88B3F5006F08D1C6
:100C68007B681B889BB243F400639AB27B681A8046
:100C780007E07B681B889BB223F400639AB27B6809
:100C88001A8000BF0C37BD465DF8047B704780B4FE
:100C980083B000AF78600B46FB70FB78002B08D060
:100CA8007B681B889BB243F020039AB27B681A804A
:100CB80007E07B681B889BB223F020039AB27B680D
:100CC8001A8000BF0C37BD465DF8047B704780B4BE
:100CD80083B000AF78607B681B8B9BB21B0A9BB20A
:100CE800DBB218460C37BD465DF8047B704780B40C
:100CF80083B000AF78600B46FB70FB78002B08D000
:100D08007B689B889BB243F400639AB27B689A80A5
:100D180007E07B689B889BB223F400639AB27B68E8
:100D28009A8000BF0C37BD465DF8047B704780B4DD
:100D380083B000AF78600B46FB70FB78002B08D0BF
:100D48007B689B889BB243F480539AB27B689A80F5
:100D580007E07B689B889BB223F480539AB27B6838
:100D68009A8000BF0C37BD465DF8047B704780B49D
:100D780085B000AF78600B46FB700023FB607B6892
:100D8800FB60FA78FB681344FB60FB681B889BB226
:100D980018461437BD465DF8047B704780B483B0AD
:100DA80000AF78600B467B8013467B707B78002B06
:100DB80008D07B689B889AB27B8813439AB27B6879
:100DC8009A8009E07B689B889AB27B88DB439BB258
:100DD80013409AB27B689A8000BF0C37BD465DF815
:100DE800047B704780B487B000AF78603960002317
:100DF8003B610023FB600023BB600023FB757B681D
:100E08009B8A9BB2FB607B681B8B9BB2BB60BB68F9
:100E18001B04BB60FA68BB68134323F07F433B6144
:100E28003A693B681A403B689A4202D10123FB7534
:100E380001E00023FB75FB7D18461C37BD465DF8B5
:100E4800047B704780B487B000AF786000237B6173
:100E580000233B610023FB607B689B8A9BB23B615C
:100E68007B681B8B9BB2FB60FB681B04FB603A69C9
:100E7800FB68134323F07F437B617B6918461C376B
:100E8800BD465DF8047B704780B487B000AF7860DA
:100E980039600023FB7500233B610023FB607B68FE
:100EA800FB603B681B0F3B613B6823F07F433B6063
:100EB8003B69002B03D0FB681433FB6005E03B68FB
:100EC8001B0C3B60FB681833FB60FB681A683B68C7
:100ED8001340002B02D00123FB7501E00023FB75B2
:100EE800FB7D18461C37BD465DF8047B704780B40F
:100EF80085B000AF786039600023FB603B6823F061
:100F08007F43FB60FB689BB2DB439AB27B689A82A3
:100F180000BF1437BD465DF8047B704780B485B0C8
:100F280000AF786039600023FB730023BB603B6827
:100F38001B0C7A68928892B2134003F4E063BB609A
:100F48003B6823F07F433B607B689B8A9BB21A46D1
:100F58003B681340002B05D0BB68002B02D001234F
:100F6800FB7301E00023FB73FB7B18461437BD4677
:100F78005DF8047B704780B485B000AF7860396055
:100F88000023FB603B6823F07F43FB60FB689BB258
:100F9800DB439AB27B689A8200BF1437BD465DF87E
:100FA800047B704780B400AF104A104B1B6843F0B5
:100FB800010313600D4B00229A600C4A0B4B1B680F
:100FC80023F0847323F480331360084B084A5A6073
:100FD800064A064B1B6823F480231360034B002248
:100FE800DA6000BFBD465DF8047B704700380240F8
:100FF8001030002480B483B000AF0346FB71064B69
:1010080000221A70044AFB79137000BF0C37BD46E2
:101018005DF8047B704700BF0238024080B582B09B
:1010280000AF00233B600023FB710023BB7131201C
:1010380000F0B0FC0346BB713B6801333B603B6882
:10104800B3F5A06F02D0BB79002BF0D0312000F0AF
:10105800A1FC0346002B02D00123FB7101E0002311
:10106800FB71FB7918460837BD4680BD80B485B052
:1010780000AF0346FB710023FB600A4B1B68FB6053
:10108800FB6823F0F803FB60FB79DB00FA68134385
:10109800FB60044AFB68136000BF1437BD465DF867
:1010A800047B70470038024080B483B000AF034629
:1010B800FB71044AFB79136000BF0C37BD465DF82D
:1010C800047B70470000474280B483B000AF0346FA
:1010D800FB710D4B00221A700B4B00221A70FB7922
:1010E800012B02D0042B04D007E0074B01221A7011
:1010F80003E0054B05221A7000BF00BF0C37BD4640
:101108005DF8047B704700BF7038024080B483B03C
:1011180000AF0346FB71044AFB79136000BF0C372C
:10112800BD465DF8047B7047800E474280B485B0A9
:1011380000AFF860B9607A603B600B497B689A0140
:10114800BB681A433B685B08013B1B041A43FB68F6
:101158001A43BB691B0613434B6000BF1437BD46D7
:101168005DF8047B704700BF0038024080B483B04C
:1011780000AF0346FB71044AFB79136000BF0C37CC
:10118800BD465DF8047B70476000474280B483B079
:1011980000AF7860396007497B689A013B681B0794
:1011A8001343C1F8843000BF0C37BD465DF8047B9B
:1011B800704700BF0038024080B483B000AF0346D8
:1011C800FB71044AFB79136000BF0C37BD465DF81C
:1011D800047B70476800474280B483B000AF034681
:1011E800FB71044AFB79136000BF0C37BD465DF8FC
:1011F800047B70474C00474280B485B000AF7860EC
:1012080039600023FB600B4B9B68FB60FB6823F095
:10121800EC63FB607A683B681343FA681343FB602E
:10122800044AFB68936000BF1437BD465DF8047B31
:10123800704700BF0038024080B485B000AF7860C6
:1012480039600023FB600B4B9B68FB60FB6823F055
:101258007843FB607A683B681343FA681343FB6082
:10126800044AFB68936000BF1437BD465DF8047BF1
:10127800704700BF0038024080B485B000AF786086
:101288000023FB60094B9B68FB60FB6823F00303AA
:10129800FB60FA687B681343FB60044AFB68936051
:1012A80000BF1437BD465DF8047B70470038024024
:1012B80080B400AF054B9B68DBB203F00C03DBB2D4
:1012C8001846BD465DF8047B704700BF00380240F1
:1012D80080B485B000AF78600023FB60094B9B6841
:1012E800FB60FB6823F0F003FB60FA687B6813433C
:1012F800FB60044AFB68936000BF1437BD465DF885
:10130800047B70470038024080B485B000AF786035
:101318000023FB60094B9B68FB60FB6823F4E053E8
:10132800FB60FA687B681343FB60044AFB689360C0
:1013380000BF1437BD465DF8047B70470038024093
:1013480080B485B000AF78600023FB600A4B9B68CF
:10135800FB60FB6823F46043FB607B68DB00FA6892
:101368001343FB60044AFB68936000BF1437BD4613
:101378005DF8047B704700BF0038024080B489B034
:1013880000AF78600023BB6100237B610023FB6111
:1013980002233B610023FB600223BB60474B9B6831
:1013A80003F00C03BB61BB69042B07D0082B09D0E1
:1013B800002B3DD17B68424A1A603DE07B68414A78
:1013C8001A6039E03D4B5B689B0D03F00103FB603D
:1013D8003A4B5B6803F03F03BB60FB68002B0CD003
:1013E800384ABB68B2FBF3F3344A52689209C2F335
:1013F800080202FB03F3FB610BE0314ABB68B2FB56
:10140800F3F32E4A52689209C2F3080202FB03F36F
:10141800FB612A4B5B681B0C03F0030301335B0081
:101428003B61FA693B69B2FBF3F27B681A6003E03F
:101438007B68234A1A6000BF204B9B6803F0F003C7
:10144800BB61BB691B09BB611F4ABB6913441B789D
:10145800DBB27B617B681A687B69DA407B685A601B
:10146800164B9B6803F4E053BB61BB699B0ABB61E5
:10147800154ABB6913441B78DBB27B617B685A68E9
:101488007B69DA407B689A600C4B9B6803F4604385
:10149800BB61BB695B0BBB610B4ABB6913441B781F
:1014A800DBB27B617B685A687B69DA407B68DA600B
:1014B80000BF2437BD465DF8047B70470038024002
:1014C8000024F40040787D010000002080B485B03D
:1014D80000AF78600023FB607B6803F44073B3F5CA
:1014E800407F11D10F4B9B68FB60FB6823F4F81316
:1014F800FB607B6823F0704323F44073FA6813435E
:10150800FB60084AFB6893600649064B1A6F7B68C4
:10151800C3F30B0313430B6700BF1437BD465DF8D5
:10152800047B70470038024080B483B000AF0346A4
:10153800FB71044AFB79136000BF0C37BD465DF8A8
:10154800047B70473C0E474280B483B000AF03462B
:10155800FB71044AFB79136000BF0C37BD465DF888
:10156800047B7047400E474280B483B000AF786078
:10157800044A7B68136000BF0C37BD465DF8047BE6
:10158800704700BF5C01474280B483B000AF786009
:101598000B46FB70FB78002B06D00A49094B1A6BE7
:1015A8007B6813430B6306E00649064B1A6B7B689E
:1015B800DB4313400B6300BF0C37BD465DF8047B6B
:1015C800704700BF0038024080B483B000AF786035
:1015D8000B46FB70FB78002B06D00A49094B5A6B67
:1015E8007B6813434B6306E00649064B5A6B7B68DE
:1015F800DB4313404B6300BF0C37BD465DF8047BEB
:10160800704700BF0038024080B483B000AF7860F4
:101618000B46FB70FB78002B06D00A49094B9A6BE6
:101628007B6813438B6306E00649064B9A6B7B681D
:10163800DB4313408B6300BF0C37BD465DF8047B6A
:10164800704700BF0038024080B483B000AF7860B4
:101658000B46FB70FB78002B06D00A49094B1A6C25
:101668007B6813430B6406E00649064B1A6C7B68DB
:10167800DB4313400B6400BF0C37BD465DF8047BA9
:10168800704700BF0038024080B483B000AF786074
:101698000B46FB70FB78002B06D00A49094B5A6CA5
:1016A8007B6813434B6406E00649064B5A6C7B681B
:1016B800DB4313404B6400BF0C37BD465DF8047B29
:1016C800704700BF0038024080B483B000AF786034
:1016D8000B46FB70FB78002B06D00A49094B1A69A8
:1016E8007B6813430B6106E00649064B1A697B6861
:1016F800DB4313400B6100BF0C37BD465DF8047B2C
:10170800704700BF0038024080B483B000AF7860F3
:101718000B46FB70FB78002B06D00A49094B5A6927
:101728007B6813434B6106E00649064B5A697B68A0
:10173800DB4313404B6100BF0C37BD465DF8047BAB
:10174800704700BF0038024080B483B000AF7860B3
:101758000B46FB70FB78002B06D00A49094B9A69A7
:101768007B6813438B6106E00649064B9A697B68E0
:10177800DB4313408B6100BF0C37BD465DF8047B2B
:10178800704700BF0038024080B483B000AF786073
:101798000B46FB70FB78002B06D00A49094B1A6AE6
:1017A8007B6813430B6206E00649064B1A6A7B689E
:1017B800DB4313400B6200BF0C37BD465DF8047B6A
:1017C800704700BF0038024080B483B000AF786033
:1017D8000B46FB70FB78002B06D00A49094B5A6A66
:1017E8007B6813434B6206E00649064B5A6A7B68DE
:1017F800DB4313404B6200BF0C37BD465DF8047BEA
:10180800704700BF0038024080B483B000AF7860F2
:101818000B46FB70FB78002B06D00A49094B1A6D62
:101828007B6813430B6506E00649064B1A6D7B6817
:10183800DB4313400B6500BF0C37BD465DF8047BE6
:10184800704700BF0038024080B483B000AF7860B2
:101858000B46FB70FB78002B06D00A49094B5A6DE2
:101868007B6813434B6506E00649064B5A6D7B6857
:10187800DB4313404B6500BF0C37BD465DF8047B66
:10188800704700BF0038024080B483B000AF786072
:101898000B46FB70FB78002B06D00A49094B9A6D62
:1018A8007B6813438B6506E00649064B9A6D7B6897
:1018B800DB4313408B6500BF0C37BD465DF8047BE6
:1018C800704700BF0038024080B483B000AF786032
:1018D8000B46FB70FB78002B06D00A49094B1A6EA1
:1018E8007B6813430B6606E00649064B1A6E7B6855
:1018F800DB4313400B6600BF0C37BD465DF8047B25
:10190800704700BF0038024080B483B000AF7860F1
:101918000B46FB70FB78002B06D00A49094B5A6E20
:101928007B6813434B6606E00649064B5A6E7B6894
:10193800DB4313404B6600BF0C37BD465DF8047BA4
:10194800704700BF0038024080B483B000AF034640
:101958000A46FB711346BB71BB79002B08D00C49B2
:101968000B4B1B78DAB2FB791343DBB20B7009E03F
:101978000749074B1B78DAB2FB79DB43DBB213402C
:10198800DBB20B7000BF0C37BD465DF8047B7047B7
:101998000D38024080B487B000AF0346FB710023C6
:1019A800FB6000237B610023FB74FB795B09DBB2DE
:1019B800FB60FB68012B03D1124B1B687B6109E0BC
:1019C800FB68022B03D10F4B1B6F7B6102E00D4BB1
:1019D8005B6F7B61FB7903F01F03FB607A69FB682F
:1019E80022FA03F303F00103002B02D00123FB7456
:1019F80001E00023FB74FB7C18461C37BD465DF8EC
:101A0800047B70470038024080B400AF054A054B9C
:101A18005B6F43F08073536700BFBD465DF8047B7E
:101A2800704700BF0038024080B485B000AF03465D
:101A3800FB710023FB73094BDA68FB791340002B19
:101A480002D00123FB7301E00023FB73FB7B1846E4
:101A58001437BD465DF8047B704700BF003802406C
:101A680080B483B000AF0346FB71044AFB7913705E
:101A780000BF0C37BD465DF8047B70470E38024046
:101A880080B582B000AF78607B68174A93420AD16C
:101A980001214FF48050FFF797FE00214FF480504A
:101AA800FFF792FE1CE07B68104A93420AD101219D
:101AB8004FF48040FFF768FE00214FF48040FFF7A5
:101AC80063FE0DE07B680A4A934209D101214FF475
:101AD8000040FFF759FE00214FF40040FFF754FE85
:101AE80000BF0837BD4680BD0030014000380040C7
:101AF800003C004080B485B000AF786039600023B6
:101B0800FB817B681B88FB81FB8903F44153FB81C4
:101B18003B681A883B685B8813439AB23B689B888A
:101B280013439AB23B68DB8813439AB23B681B891C
:101B380013439AB23B685B8913439AB23B689B890B
:101B480013439AB23B68DB8913439AB2FB89134368
:101B5800FB817B68FA891A807B689B8B9BB223F494
:101B680000639AB27B689A833B681A8A7B681A82F8
:101B780000BF1437BD465DF8047B704780B48BB056
:101B880000AF7860396000237B830223FB84002345
:101B9800BB8401237B840023FB6100237B6100233A
:101BA8003B610023FB600023BB607B689B8B9BB27F
:101BB80023F47B6323F00F039AB27B689A837B68D4
:101BC80002221A847B689B8B7B833B689B68022B71
:101BD80004D10023BB840223FB846DE03B689B880F
:101BE800002B02D101237B8401E002237B844B4B31
:101BF8009B6803F40003002B05D0484A474B9B68B9
:101C080023F400039360454BD3F884309B09C3F356
:101C18000803FB60414BD3F884301B0F03F0070324
:101C2800BB603E4B5B6803F03F033B613C4A3B694A
:101C3800B2FBF3F3FA6802FB03F2BB68B2FBF3F3FF
:101C48007B613B68DB88B3F5007F0FD17B691A0A9B
:101C580013469B0013445B001A463B689B68B2FB23
:101C6800F3F39BB205339BB2FB6112E07B8C5B0103
:101C78001A467B69B3FBF2F213469B0013445B00E0
:101C88001A463B689B68B2FBF3F39BB205339BB2E1
:101C9800FB61FB69234AA2FB0323DB08FB61FB69A9
:101CA8009BB203F00103BB84BB8CFA69D31A5B08AF
:101CB800FB84BB8C1B02BB84FB8C012B02D9FB8CE5
:101CC800FF2B03D90223FB840023BB843B68DA88FB
:101CD800BB8C13439AB2FB8C13439AB27B681A8469
:101CE8003B681A883B6859883B6898883B689B8999
:101CF80003439BB20B439BB213439AB27B8B1343B0
:101D08009BB243F400637B837B687A8B9A8300BF22
:101D18002C37BD465DF8047B704700BF0038024091
:101D280040787D01CDCCCCCC80B483B000AF786056
:101D38007B6800221A807B6800225A807B68002218
:101D48009A807B680022DA807B6800221A817B688F
:101D580000225A817B6800229A817B680022DA81FE
:101D68007B6807221A8200BF0C37BD465DF8047BEA
:101D7800704780B483B000AF78607B6800221A8017
:101D88007B6800225A807B6800229A807B68002248
:101D9800DA807B6802229A607B6800229A8100BF01
:101DA8000C37BD465DF8047B704780B483B000AF44
:101DB80078600B46FB70FB78002B08D07B681B888B
:101DC8009BB243F040039AB27B681A8007E07B68B5
:101DD8001B889BB223F040039AB27B681A8000BF2D
:101DE8000C37BD465DF8047B704780B483B000AF04
:101DF80078600B46FB70FB78002B08D07B689B8BC8
:101E08009BB243F480639AB27B689A8307E07B684D
:101E18009B8B9BB223F480639AB27B689A8300BF42
:101E28000C37BD465DF8047B704780B483B000AFC3
:101E380078600B467B807B681B889BB223F4006329
:101E48009AB27B681A807B681B889AB27B88134396
:101E58009AB27B681A8000BF0C37BD465DF8047BD8
:101E6800704780B483B000AF78600B467B807B8876
:101E7800B3F5804F08D17B681B889BB243F480433D
:101E88009AB27B681A8007E07B681B889BB223F4B0
:101E980080439AB27B681A8000BF0C37BD465DF854
:101EA800047B704780B483B000AF78600B467B80BA
:101EB8007B884FF6FF62934208D07B681B889BB2F1
:101EC80043F480739AB27B681A8007E07B681B88AA
:101ED8009BB223F480739AB27B681A8000BF0C37D8
:101EE800BD465DF8047B704780B483B000AF78606E
:101EF8000B46FB70FB78002B08D07B689B889BB255
:101F080043F004039AB27B689A8007E07B689B8859
:101F18009BB223F004039AB27B689A8000BF0C3707
:101F2800BD465DF8047B704780B483B000AF78602D
:101F38000B46FB70FB78002B08D07B689B889BB214
:101F480043F010039AB27B689A8007E07B689B880D
:101F58009BB223F010039AB27B689A8000BF0C37BB
:101F6800BD465DF8047B704780B485B000AF7860EB
:101F780039600023BB810023FB817B689B8B9BB26C
:101F880023F47B6323F00F039AB27B689A837B6800
:101F980002221A847B689B8BBB813B681B88B3F544
:101FA800007F03D03B681B88002B03D14FF480735C
:101FB800FB810BE03B681B88B3F5407F04D03B688E
:101FC8001B88B3F5807F01D10023FB813B685A88C9
:101FD8003B6899883B689B890B439BB213439AB231
:101FE800FB8913439AB2BB8913439BB243F4006342
:101FF800BB817B68BA899A8300BF1437BD465DF8F8
:10200800047B704780B483B000AF78607B689B899D
:102018009BB218460C37BD465DF8047B704780B408
:1020280083B000AF78600B467B807B687A889A81A2
:1020380000BF0C37BD465DF8047B704780B483B0A1
:1020480000AF78600B46FB70FB78002B08D07B68EC
:102058001B889BB243F400539AB27B681A8007E04E
:102068007B681B889BB223F400539AB27B681A8062
:1020780000BF0C37BD465DF8047B704780B483B061
:1020880000AF78607B681B889BB243F480539AB298
:102098007B681A8000BF0C37BD465DF8047B70472B
:1020A80080B485B000AF78600B46FB700023FB81DD
:1020B800FB78012B03D07B681B8BFB8102E07B68DC
:1020C8009B8AFB81FB8918461437BD465DF8047B63
:1020D800704780B483B000AF78607B681B8A9BB27E
:1020E80018460C37BD465DF8047B704780B483B052
:1020F80000AF78600B467B8013467B707B78002BA3
:1021080008D07B689B889AB27B8813439AB27B6815
:102118009A8009E07B689B889AB27B88DB439BB2F4
:1021280013409AB27B689A8000BF0C37BD465DF8B1
:10213800047B704780B485B000AF78600B46FB70B5
:102148001346BB700023FB810023BB81FB781B096E
:10215800DBB2FB81FB89012202FA03F3BB81BB7866
:10216800002B08D07B689B889AB2BB8913439AB22C
:102178007B689A8009E07B689B889AB2BB89DB43BD
:102188009BB213409AB27B689A8000BF1437BD4651
:102198005DF8047B704780B485B000AF78600B466B
:1021A8007B800023FB737B681B899AB27B88134072
:1021B8009BB2002B02D00123FB7301E00023FB73C9
:1021C800FB7B18461437BD465DF8047B704780B426
:1021D80083B000AF78600B467B807B88DB439AB284
:1021E8007B681A8100BF0C37BD465DF8047B7047D9
:1021F80080B485B000AF78600B46FB700023FB739A
:102208000023BB8100237B8100233B81FB7803F003
:102218000F03012202FA03F3BB81FB781B09DBB22F
:102228007B817B89012202FA03F37B817B689B888F
:102238009AB27B8913403B817B681B899AB2BB8920
:1022480013409BB2002B05D03B89002B02D0012301
:10225800FB7301E00023FB73FB7B18461437BD4674
:102268005DF8047B704780B485B000AF78600B469A
:10227800FB700023FB81FB7803F00F03012202FAB5
:1022880003F3FB81FB89DB439AB27B681A8100BFA9
:102298001437BD465DF8047B704700BF80B400AFBB
:1022A800094B00221A60084B00225A60064B002294
:1022B8009A60054B0022DA60034B044A5A6100BF5A
:1022C800BD465DF8047B7047003C0140FFFF7F007E
:1022D80080B485B000AF78600023FB60344BFB60AE
:1022E8007B689B79002B4FD03149314B1A687B684A
:1022F8001B68DB4313400B602D492D4B5A687B68E4
:102308001B68DB4313404B607B681B791A46FB68EC
:102318001344FB60FB68FA6811687A6812680A431C
:102328001A602349224B9A687B681B68DB43134079
:102338008B601F491E4BDA687B681B68DB431340C0
:10234800CB607B685B79102B0ED11949184B9A68C2
:102358007B681B6813438B601549154BDA687B68EB
:102368001B681343CB601DE0114BFB607B685B79F6
:102378001A46FB681344FB60FB68FA6811687A68C0
:1023880012680A431A600DE07B681B791A46FB68DD
:102398001344FB60FB68FA6811687A681268D243D4
:1023A8000A401A6000BF1437BD465DF8047B7047C9
:1023B800003C014080B483B000AF78607B680022A5
:1023C8001A607B6800221A717B680C225A717B683C
:1023D80000229A7100BF0C37BD465DF8047B704738
:1023E80080B483B000AF78600549054B1A697B68F3
:1023F80013430B6100BF0C37BD465DF8047B704783
:10240800003C014080B485B000AF78600023FB73C6
:10241800084B5A697B681340002B02D00123FB73D9
:1024280001E00023FB73FB7B18461437BD465DF8BB
:10243800047B7047003C014080B483B000AF7860F3
:10244800044A7B68536100BF0C37BD465DF8047BC6
:10245800704700BF003C014080B485B000AF786091
:102468000023FB730023BB600C4B1A687B68134086
:10247800BB600A4B5A697B681340002B05D0BB68C8
:10248800002B02D00123FB7301E00023FB73FB7BCD
:1024980018461437BD465DF8047B7047003C014080
:1024A80080B483B000AF7860044A7B68536100BF92
:1024B8000C37BD465DF8047B704700BF003C014007
:1024C80080B500AF01214FF48040FFF77DF900216E
:1024D8004FF48040FFF778F900BF80BD80B483B027
:1024E80000AF0346FB71044AFB79136000BF0C3749
:1024F800BD465DF8047B70470038014090B484B055
:1025080000AF03460A46FB711346BB710023FB600C
:10251800BB7903F003039B000F2202FA03F3FB606D
:102528001649BB799B08DBB21846144ABB799B084D
:10253800DBB2023352F82320FB68DB431A40831CCA
:1025480041F823200D48BB799B08DBB21C460B4A97
:10255800BB799B08DBB2023352F82320F979BB79A7
:1025680003F003039B0001FA03F31A43A31C40F88A
:10257800232000BF1037BD4690BC7047003801408B
:1025880080B483B000AF7860044A7B68136000BFF2
:102598000C37BD465DF8047B704700BFDC0027425E
:1025A80080B483B000AF0346FB71044AFB79136023
:1025B80000BF0C37BD465DF8047B70470004274216
:1025C80080B483B000AF0023FB71094B1B6A03F48E
:1025D8008073002B02D00123FB7101E00023FB7103
:1025E800FB7918460C37BD465DF8047B704700BF81
:1025F8000038014080B483B000AF7860064A7B6839
:1026080043F0BF6343F40033D36000BF0C37BD46CB
:102618005DF8047B704700BF00ED00E080B485B032
:1026280000AF78600023FB730023BB730F237B7319
:102638007B68DB78002B39D0274BDB68DB431B0A30
:10264800DBB203F00703FB73FB7BC3F10403BB732B
:102658007A7BFB7B42FA03F37B737B685B781A46D1
:10266800BB7B02FA03F3FB737B689A787B7B13408E
:10267800DAB2FB7B1343FB73FB7B1B01FB73174A2B
:102688007B681B781344FA7B83F80023134A7B6822
:102698001B785B09DBB218467B681B7803F01F03C5
:1026A800012101FA03F342F820300FE00B497B685F
:1026B8001B785B09DBB218467B681B7803F01F03A5
:1026C80001229A4000F1200341F8232000BF14376B
:1026D800BD465DF8047B704700ED00E000E100E0D6
:1026E80080B483B000AF7860396007493B6823F055
:1026F800604323F07F037A6813438B6000BF0C3775
:10270800BD465DF8047B704700ED00E080B483B0FF
:1027180000AF03460A46FB711346BB71BB79002B19
:1027280006D00A49094B1A69FB7913430B6106E085
:102738000649064B1A69FB79DB4313400B6100BF5E
:102748000C37BD465DF8047B704700BF00ED00E024
:1027580080B483B000AF78607B68042B06D1094A47
:10276800084B1B6843F00403136005E0054A054B5A
:102778001B6823F00403136000BF0C37BD465DF8E7
:10278800047B704710E000E0A42A00080000002045
:1027980014000020140000201C00002080B400AFAA
:1027A800164A164BD3F8883043F47003C2F88830C1
:1027B800134A134B1B6843F001031360104B0022AC
:1027C8009A600F4A0E4B1B6823F0847323F48033FE
:1027D80013600B4B0B4A5A60094A094B1B6823F4D8
:1027E80080231360064B0022DA60044B4FF000622E
:1027F8009A6000BFBD465DF8047B704700ED00E0BD
:10280800003802401030002480B487B000AF0023A5
:102818003B6100237B610223FB600023BB60022332
:102828007B60314B9B6803F00C033B613B69042BD5
:1028380007D0082B09D0002B3DD12C4B2C4A1A600D
:102848003DE02A4B2B4A1A6039E0274B5B689B0D09
:1028580003F00103BB60244B5B6803F03F037B601C
:10286800BB68002B0CD0234A7B68B2FBF3F31E4AEB
:1028780052689209C2F3080202FB03F37B610BE082
:102888001B4A7B68B2FBF3F3174A52689209C2F3FA
:10289800080202FB03F37B61134B5B681B0C03F01C
:1028A800030301335B00FB607A69FB68B2FBF3F357
:1028B8000E4A136003E00D4B0D4A1A6000BF0A4B25
:1028C8009B681B0903F00F030B4AD35C3B61074B62
:1028D8001A683B6922FA03F3044A136000BF1C37E5
:1028E800BD465DF8047B70470038024010000020A8
:1028F8000024F40040787D01802A000880B500AFEC
:1029080000F003F800F009F8FCE780B500AF00F02C
:102918003FF800F059F800BF80BD80B582B000AF25
:102928004FF4005319461548FDF784FD0346FB7123
:10293800134B1B78FA799A4218D0FB79002B15D0E3
:10294800104B1B6801330F4A136044F28103194688
:102958000D48FDF7CCFD0B4B1B6803F003030B4A36
:1029680032F8133019460848FDF7B2FD044AFB79DE
:10297800137000BF0837BD4680BD00BF0008024085
:102988001400002018000020000402409C2A0008BF
:1029980080B582B000AF01210220FEF7F5FD3B466D
:1029A8001846FDF70BFD01233B7144F281033B60A0
:1029B8003B4619460348FDF773FC00BF0837BD4680
:1029C80080BD00BF0004024080B582B000AF012185
:1029D8000420FEF7D9FD3B461846FDF7EFFC00231F
:1029E8003B714FF400533B603B4619460348FDF7E3
:1029F80057FC00BF0837BD4680BD00BF0008024035
:102A080080B483B000AF78607B684FF4526202FBF9
:102A180003F37B6000E000BF7B685A1E7A60002BDE
:102A2800F9D100BF0C37BD465DF8047B704700BF85
:102A3800002103E00A4B5B584350043109480A4B14
:102A480042189A42F6D3094A02E0002342F8043BAE
:102A5800074B9A42F9D3FFF7A1FEFFF74FFF7047E4
:102A6800A42A000800000020140000201400002000
:082A78001C000020FEE7000035
:102A8000000000000000000001020304060708091E
:102A900000000000010203048140000080000040AB
:042AA0000100002011
:102AA40000000000010203040102030406070809F0
:042AB4000024F40006
:0400000508002A398C
:00000001FF
